:1000000093C0ADC029C2ABC0AAC0A9C08BC2A7C053
:10001000A6C0A5C0A4C0A3C0A2C0A1C0A0C09FC0CC
:100020009EC09DC09CC06E616E00696E66000040FF
:100030007A10F35A00A0724E18090010A5D4E800F7
:1000400000E87648170000E40B54020000CA9A3B0F
:10005000000000E1F5050000809698000000404295
:100060000F000000A0860100000010270000000023
:10007000E803000000006400000000000A00000027
:1000800000000100000000002C76D888DC674F08D3
:1000900023DFC1DFAE59E1B1B796E5E3E453C63AD9
:1000A000E651997696E8E6C28426EB898C9B62ED50
:1000B000407C6FFCEFBC9C9F40F2BAA56FA5F4900A
:1000C000055A2AF75C936B6CF9676DC11BFCE0E481
:1000D0000D47FEF520E6B500D0ED902E03009435D7
:1000E00077050080841E080000204E0A000000C82A
:1000F0000C333333330F986E12831141EF8D21147B
:10010000893BE65516CFFEE6DB18D1844B381BF74A
:100110007C1D901DA4BBE424203284725E228100E9
:10012000C9F124ECA1E53D2711241FBECFE5D4E0A1
:10013000DEBFCDBF10E0A0E6B0E0EAE2F5E102C02C
:1001400005900D92A236B107D9F710E0A2E6B0E013
:1001500001C01D92AA36B107E1F74BD1E4C950CFD7
:10016000AD9AAC9AAB9AAA9AC49AC39AC29AC19A07
:100170006111C198882329F1813039F1823031F43D
:10018000AD98AB98AA98C498C3980895833011F499
:10019000AD9819C0843019F4AD98AC9816C085306C
:1001A00019F4AD98AC9805C0863031F4AD98AC9890
:1001B000AB98AA98C4980AC0873031F0883041F4CF
:1001C000AD98AC98AB98AA98C498C398C298089573
:1001D000893031F4AD98AC98AA98C498C398C29865
:1001E0000895AD9AAC9AAB9AAA9AC49AC39AC29A45
:1001F000C19AAD980895AD9AAC9AAB9AAA9AC49A4E
:10020000C39AC29AC19A0895882319F4909A919832
:1002100004C0813021F49098919A929805C0823060
:1002200029F490989198929A94980895833021F4A3
:10023000909891989298949A08959F92AF92BF92B5
:10024000CF92DF92EF92FF920F931F93CF93DF93A2
:100250006B017C0120E030E040E050E0DCD587FD20
:1002600002C0992406C0F7FAF094F7F8F0949924A4
:100270009394C701B60120E030E040E85FE3CBD5BE
:1002800088233CF4C701B60120E030E04AE754E49B
:100290001FC0C701B60120E030E040E251E4BBD509
:1002A00088233CF4C701B60120E030E048EC52E47A
:1002B0000FC0C701B60120E030E048EC52E4ABD5F6
:1002C000882344F4C701B60120E030E040E251E465
:1002D000F1D602C0C701B6010AD69B01CB0164E684
:1002E00070E04BD75B018CE99FEF689F8001699FAD
:1002F000100D789F100D1124020F131FC8016AE022
:1003000070E03BD7EB0180E07FDF86EF9FEF9C0141
:10031000C29FC001C39F900DD29F900D1124800FEA
:1003200060E01EDF80E197E20197F1F781E06CDF8A
:10033000C701B60120E030E040E85FE36CD58823D8
:10034000ACF0C701B60120E030E040E251E463D5F3
:10035000882364F0C701B60120E030E048EC52E4A5
:100360005AD588231CF48C2F61E002C08C2F60E0EA
:10037000F7DE80E197E20197F1F782E045DFC70100
:10038000B60120E030E040E85FE345D588239CF0EB
:10039000C701B60120E030E040E251E43CD58823BB
:1003A0001CF48A2D61E009C0C701B60120E030E0ED
:1003B00048EC52E430D58A2D60E0D2DE80E197E24D
:1003C0000197F1F783E020DF992011F00ADF01C0E7
:1003D00012DF80E197E20197F1F7DF91CF911F9152
:1003E0000F91FF90EF90DF90CF90BF90AF909F90D4
:1003F0000895CF93DF93A59AA49AA39AA29A8FEF18
:1004000087BB88BB889A899A8A9A8C9A8D9A1CD1C4
:1004100018D1959A8AEF90E00197F1F7789420919E
:10042000680060916900D22FC0E070E06C2B7D2BDA
:1004300080E090E08DD520E030EE4FEF54E4EFD433
:1004400020E030E048E453E435D620E030E048E4F2
:1004500052E47CD4F2DEE3CF1F920F920FB60F92DC
:1004600011242F933F934F935F936F937F938F93B9
:100470009F93AF93BF93EF93FF938091620090910E
:1004800063000097A9F480916600809166008093D4
:1004900068008091670080916700809369001092E6
:1004A000660010926700C6D0D7D081E090E00DC002
:1004B0008130910579F4D3D08CB59DB590936500CA
:1004C00080936400B0D082E090E0909363008093CA
:1004D000620017C08230910551F41DBC1CBC809194
:1004E000640090916500C2D085E090E0EECF049763
:1004F000029738F41DBC1CBC80916400909165008B
:10050000B5D0FF91EF91BF91AF919F918F917F9166
:100510006F915F914F913F912F910F900FBE0F9070
:100520001F9018951F920F920FB60F9211242F93C0
:100530003F934F935F936F937F938F939F93AF936B
:10054000BF93EF93FF938DD01DBC1CBC80916200C4
:10055000909163008530910519F5839B15C08091BA
:100560006000882389F0409166002091600030E0AF
:100570002150304081E090E002C0880F991F2A95F9
:10058000E2F7482B4093660080916000882349F58C
:1005900084E090E0909363008093620089E024C03F
:1005A000049761F5839B19C0809160008823A9F0AE
:1005B00080916000893088F440916700209160004C
:1005C00030E02150304081E090E002C0880F991F58
:1005D0002A95E2F7482B40936700809160008823BA
:1005E00031F08091600081508093600007C088E006
:1005F000809360001092630010926200FF91EF916F
:10060000BF91AF919F918F917F916F915F914F912A
:100610003F912F910F900FBE0F901F901895939AB6
:1006200008959398089585B78B7F85BF8AB78068B2
:100630008ABF089585B7846085BF8AB780688ABFFE
:10064000089588E085BF08958BB780688BBF0895B3
:100650008BB78F778BBF089581E08EBD08951EBC48
:1006600008951EBC89B78F7E89BF08959BBD8ABD42
:1006700089E08EBD89B7806189BF0895A1E1B0E0AE
:10068000E3E4F3E08DC53C017F876E876A01FC01DE
:1006900017821682838181FD03C06FEF7FEF52C303
:1006A0009E012F5F3F4F398B288BF3012381EE850D
:1006B000FF8523FD859123FF8191FF87EE878823A6
:1006C00009F43DC3853251F4EE85FF8523FD859104
:1006D00023FF8191FF87EE87853221F490E0B301FB
:1006E00098D6E3CF982F10E0882499241032B0F4E4
:1006F0009B3269F09C3228F4903251F0933271F4BD
:100700000BC09D3239F0903349F4116028C012605B
:10071000146025C0186023C0106121C017FD2AC0D5
:10072000892F80538A3078F416FF06C0FAE09F9E26
:10073000902C1124980E13C03AE0839E802C112433
:10074000880E10620CC09E3221F416FDF8C21064AF
:1007500006C09C3611F4106802C0983659F4EE8534
:10076000FF8523FD959123FF9191FF87EE879923C4
:1007700009F0BCCF892F8554833020F4812F80610C
:10078000905E07C0892F8556833008F08FC1812F76
:100790008F7E86FD02C076E0972E6FE3F62EF8225C
:1007A000953619F4F0E4FF2A07C0963619F420E8CC
:1007B000F22A02C091109A94F7FE0AC03BE3391561
:1007C00018F45CE3B52E02C0B92CB39427E009C03D
:1007D00047E0491520F4BB2447E0942EF7CF292D9C
:1007E000BB24C60104969D878C87F60160817181C8
:1007F00082819381AE014F5F5F4F0B2D1CD56C0141
:100800000981202E332400FF04C003FD02C01DE235
:1008100009C0F1FE02C01BE205C0F2FC02C010E0FC
:1008200001C010E2C1018C709070892BA1F11123DD
:1008300011F483E001C084E0881510F0882409C019
:10084000881AF3FC06C080E290E0B301E2D58A94F6
:10085000D1F7112321F0812F90E0B301DAD523FEE7
:1008600003C006E210E00DC00AE210E00AC0E11485
:10087000F10409F0805290E0B301CBD50F5F1F4F18
:1008800005C0EF2CFF24F0E1EF22FF24F801849152
:10089000882369F708C1F7FE12C0BC0C24FE04C00F
:1008A0008A81813309F4BA941B141CF0BB24B394DD
:1008B0002DC0F8E0FB1550F538E0B32E27C0F6FC4C
:1008C00025C0892D90E08C159D054CF02CEFC216AB
:1008D0002FEFD20624F030E8F32A01C09A94992031
:1008E00049F0E2E0F0E0EC0FFD1FE90DF11D808121
:1008F0008033A1F3F7FE0AC0B92CB394892D90E0A0
:10090000C816D90614F0992401C09C18F7FC03C03E
:1009100025E030E009C01C141D041CF021E030E08B
:1009200003C096012F5F3F4F112311F02F5F3F4F00
:10093000992029F0892D90E00196280F391F882DE4
:1009400090E02817390714F0882401C0821A4F2C30
:100950005524C20189709070892B31F007C080E264
:1009600090E0B30156D58A948820C9F7112321F06D
:10097000812F90E0B3014DD543FE06C007C080E350
:1009800090E0B30146D58A948820C9F7F7FE44C0A9
:100990008601D7FE02C000E010E076010894E11C59
:1009A000F11CE01AF10A41E050E04C0F5D1FE40E2B
:1009B000F51E26014B185108892D90E0AA24BB246E
:1009C000A81AB90A5FEF0F3F150721F48EE290E0F5
:1009D000B3011FD5C016D10634F0401651061CF4E1
:1009E000F701808101C080E3015010400894E11CB0
:1009F000F11C0A151B0524F090E0B3010AD5E2CFE3
:100A00000C151D0539F49A81963318F4953311F4B9
:100A100024FE81E390E045C08A81813309F00F7E96
:100A200090E0B301F6D4992091F08EE290E0B3010A
:100A3000F0D412E0E1E0F0E0EC0FFD1FE10FF11D5A
:100A40001F5F808190E0B301E4D49A9499F744FC4D
:100A500003C085E690E002C085E490E0B301D9D4FC
:100A6000D7FC05C0C114D10441F404FF06C0D094E2
:100A7000C194D108D3948DE201C08BE290E0B30120
:100A8000C8D480E305C08F5F26EF3FEFC20ED31EB0
:100A90003AE0C316D104BCF790E0B301BAD4C60162
:100AA000C096B301B6D4CC84DD8446C1933631F010
:100AB000933799F0933509F055C022C0F601808133
:100AC00089835E010894A11CB11C22E030E0C20EB3
:100AD000D31E21E0E22EF12C11C0F601A080B180DE
:100AE00016FD03C06FEF7FEF02C0692D70E022E0BA
:100AF00030E0C20ED31EC50181D47C011F7712C025
:100B0000F601A080B18016FD03C06FEF7FEF02C039
:100B1000692D70E022E030E0C20ED31EC50163D41F
:100B20007C01106813FF06C019C080E290E0B30199
:100B300070D48A94882D90E0E816F906B0F30EC0C0
:100B4000F50117FD859117FF81915F0190E0B301D9
:100B500060D481108A940894E108F108E114F1044A
:100B600079F7EAC0943611F0993681F517FF08C07D
:100B7000F601208131814281538184E090E00AC0F6
:100B8000F601808191819C01442737FD4095542FC7
:100B900082E090E0C80ED91E9FE6F92EF12257FFA1
:100BA00009C050954095309521953F4F4F4F5F4F6D
:100BB00090E8F92ACA01B901AE014F5F5F4F2AE000
:100BC00030E053D4E82EE889EE1A40C0953721F47E
:100BD0001F7E2AE030E01CC0197F9F3661F09037FD
:100BE00020F4983509F0ABC00FC0903739F0983732
:100BF00009F0A5C004C028E030E00AC0106114FD6F
:100C0000146020E130E004C014FD166020E132E001
:100C100017FF08C0F601608171818281938144E0F1
:100C200050E008C0F60180819181BC0180E090E035
:100C300042E050E0C40ED51EAE014F5F5F4F15D4A9
:100C4000E82E5889E51A8FE7F82EF122F6FE0BC040
:100C50008EEFF822E91438F4F4FE07C0F2FC05C068
:100C60009FEEF92202C01E2D01C0192DF4FE0DC009
:100C7000FE01EE0DF11D8081803319F4E9EEFE22B4
:100C800008C01F5FF2FE05C003C08F2D867809F0F3
:100C90001F5F0F2DF3FC13C0F0FE0EC0181510F0EF
:100CA0009E2C0AC09E2C980C911A182D05C080E22B
:100CB00090E0B301AED31F5F1815C8F304C0181538
:100CC00010F4811A01C0882404FF0EC080E390E074
:100CD000B3019FD302FF1BC001FD03C088E790E072
:100CE0000EC088E590E00BC0802F867881F001FF70
:100CF00002C08BE201C080E2F7FC8DE290E0B3011C
:100D000088D305C080E390E0B30183D39A94E914BB
:100D1000C8F3EA94E1E0F0E0EC0FFD1FEE0DF11DE9
:100D2000808190E0B30175D3EE2099F705C080E291
:100D300090E0B3016ED38A948820C9F7B6CCF30152
:100D400066817781CB016196E2E146C25058BB27AC
:100D5000AA270ED075C166D130F06BD120F031F4E6
:100D60009F3F11F41EF45BC10EF4E095E7FB51C107
:100D7000E92F77D180F3BA176207730784079507C5
:100D800018F071F49EF58FC10EF4E0950B2EBA2F7A
:100D9000A02D0B01B90190010C01CA01A001112481
:100DA000FF27591B99F0593F50F4503E68F11A162D
:100DB000F040A22F232F342F4427585FF3CF4695BE
:100DC00037952795A795F0405395C9F77EF41F16E0
:100DD000BA0B620B730B840BBAF09150A1F0FF0FAA
:100DE000BB1F661F771F881FC2F70EC0BA0F621F96
:100DF000731F841F48F4879577956795B795F79586
:100E00009E3F08F0B3CF9395880F08F09927EE0F17
:100E1000979587950895D9D008F481E008950CD06E
:100E20000FC107D140F0FED030F021F45F3F19F040
:100E3000F0C0511139C1F3C014D198F39923C9F30B
:100E40005523B1F3951B550BBB27AA2762177307D0
:100E5000840738F09F5F5F4F220F331F441FAA1F84
:100E6000A9F333D00E2E3AF0E0E830D09150504044
:100E7000E695001CCAF729D0FE2F27D0660F771FF2
:100E8000881FBB1F261737074807AB07B0E809F0D4
:100E9000BB0B802DBF01FF2793585F4F2AF09E3F69
:100EA000510568F0B6C000C15F3FECF3983EDCF33B
:100EB000869577956795B795F7959F5FC9F7880FE2
:100EC000911D9695879597F90895E1E0660F771F34
:100ED000881FBB1F621773078407BA0720F0621BC5
:100EE000730B840BBA0BEE1F88F7E095089504D0BE
:100EF0006894B111D9C00895BCD088F09F5790F084
:100F0000B92F9927B751A0F0D1F0660F771F881F2E
:100F1000991F1AF0BA95C9F712C0B13081F0C3D049
:100F2000B1E00895C0C0672F782F8827B85F39F0E7
:100F3000B93FCCF3869577956795B395D9F73EF48D
:100F400090958095709561957F4F8F4F9F4F089535
:100F5000E89409C097FB3EF4909580957095619553
:100F60007F4F8F4F9F4F9923A9F0F92F96E9BB2709
:100F70009395F695879577956795B795F111F8CF85
:100F8000FAF4BB0F11F460FF1BC06F5F7F4F8F4FF0
:100F90009F4F16C0882311F096E911C0772321F0E6
:100FA0009EE8872F762F05C0662371F096E8862F7E
:100FB00070E060E02AF09A95660F771F881FDAF7D5
:100FC000880F9695879597F90895990F0008550F02
:100FD000AA0BE0E8FEEF16161706E807F907C0F0BF
:100FE00012161306E407F50798F0621B730B840BC7
:100FF000950B39F40A2661F0232B242B252B21F4A1
:1010000008950A2609F4A140A6958FEF811D811D40
:10101000089597F99F6780E870E060E008959FEF7A
:1010200080EC089500240A9416161706180609067F
:10103000089500240A94121613061406050608954E
:10104000092E0394000C11F4882352F0BB0F40F4D6
:10105000BF2B11F460FF04C06F5F7F4F8F4F9F4F16
:10106000089557FD9058440F551F59F05F3F71F098
:101070004795880F97FB991F61F09F3F79F08795FF
:101080000895121613061406551FF2CF4695F1DF88
:1010900008C0161617061806991FF1CF8695710518
:1010A000610508940895E894BB2766277727CB014C
:1010B00097F908950BD0C4CFB5DF28F0BADF18F048
:1010C000952309F0A6CFABCF1124EECFCADFA0F352
:1010D000959FD1F3950F50E0551F629FF001729FCD
:1010E000BB27F00DB11D639FAA27F00DB11DAA1FEC
:1010F000649F6627B00DA11D661F829F2227B00D39
:10110000A11D621F739FB00DA11D621F839FA00DC3
:10111000611D221F749F3327A00D611D231F849F13
:10112000600D211D822F762F6A2F11249F5750406A
:101130008AF0E1F088234AF0EE0FFF1FBB1F661F05
:10114000771F881F91505040A9F79E3F510570F0BE
:1011500060CFAACF5F3FECF3983EDCF3869577959E
:101160006795B795F795E7959F5FC1F7FE2B880FB9
:10117000911D9695879597F9089597FB092E072657
:101180000AD077FD04D043D006D000201AF4709521
:1011900061957F4F0895F6F7909581959F4F08953B
:1011A0002F923F924F925F926F927F928F929F9277
:1011B000AF92BF92CF92DF92EF92FF920F931F9365
:1011C000CF93DF93CDB7DEB7CA1BDB0B0FB6F89416
:1011D000DEBF0FBECDBF09942A88398848885F8456
:1011E0006E847D848C849B84AA84B984C884DF80C7
:1011F000EE80FD800C811B81AA81B981CE0FD11DAB
:101200000FB6F894DEBF0FBECDBFED010895AA1B47
:10121000BB1B51E107C0AA1FBB1FA617B70710F0E1
:10122000A61BB70B881F991F5A95A9F78095909513
:10123000BC01CD010895283008F027E03327DA01FA
:10124000990F311D87FD916000966105710539F494
:1012500032602E5F3D9330E32A95E1F708959F3F7A
:1012600030F080387105610509F03C5F3C5F3D93CB
:10127000913008F08068911DDF93CF931F930F93F7
:10128000FF92EF92192F987F9695E92F9695969554
:10129000E90FFF27E857FF4F99273327EE24FF2454
:1012A000A701E70105900894079428F4360FE71E7C
:1012B000F81E491F511D660F771F881F991F06943E
:1012C000A1F70590079428F4E70EF81E491F561F52
:1012D000C11D770F881F991F661F0694A1F70590FF
:1012E000079428F4F80E491F561FC71FD11D880FF9
:1012F000991F661F771F0694A1F70590079420F4A5
:10130000490F561FC71FD81F990F661F771F881FC9
:101310000694A9F784911095177041F0D695C7955A
:1013200057954795F794E7941A95C1F7EEE2F0E0E8
:1013300068941590159135916591959105907FE28E
:101340007395E118F10A430B560BC90BD009C0F78E
:10135000E10CF11E431F561FC91FD01D7EF47033D0
:1013600011F48A95E6CFE894015030F0080F0AF4A2
:101370000027021708F4202F2395022F7A3328F034
:1013800079E37D932A95E9F710C07D932A9589F634
:10139000069497956795379517951794E118F10A74
:1013A000430B560BC90BD00998F023957E9173958A
:1013B0007A3308F070E37C932013B8F77E91706164
:1013C0007D9330F0839571E37D9370E32A95E1F787
:1013D0001124EF90FF900F911F91CF91DF919927EA
:1013E00087FD90950895FC010590615070400110B3
:1013F000D8F7809590958E0F9F1F0895FC0161503E
:10140000704001900110D8F7809590958E0F9F1F26
:1014100008950F931F93CF93DF938C01EB018B8182
:1014200081FF1BC082FF0DC02E813F818C819D8179
:101430002817390764F4E881F9810193F983E88377
:1014400006C0E885F985802F0995892B31F48E81B6
:101450009F8101969F838E8302C00FEF1FEFC8010B
:10146000DF91CF911F910F910895FA01AA2728309B
:1014700051F1203181F1E8946F936E7F6E5F7F4F61
:101480008F4F9F4FAF4FB1E03ED0B4E03CD0670FDD
:10149000781F891F9A1FA11D680F791F8A1F911D30
:1014A000A11D6A0F711D811D911DA11D20D009F480
:1014B00068943F912AE0269F11243019305D3193C2
:1014C000DEF6CF010895462F4770405D4193B3E0AB
:1014D0000FD0C9F7F6CF462F4F70405D4A3318F052
:1014E000495D31FD4052419302D0A9F7EACFB4E003
:1014F000A6959795879577956795BA95C9F70097BB
:101500006105710508959B01AC010A2E069457955B
:10151000479537952795BA95C9F7620F731F841FB2
:0A152000951FA01D0895F894FFCF59
:02152A000800B7
:00000001FF
